{
  "_format": "hh-sol-artifact-1",
  "contractName": "CertificateNFT",
  "sourceName": "contracts/CertificateNFT.sol",
  "abi": [
    {
      "inputs": [],
      "stateMutability": "nonpayable",
      "type": "constructor"
    },
    {
      "inputs": [
        {
          "internalType": "address",
          "name": "sender",
          "type": "address"
        },
        {
          "internalType": "uint256",
          "name": "tokenId",
          "type": "uint256"
        },
        {
          "internalType": "address",
          "name": "owner",
          "type": "address"
        }
      ],
      "name": "ERC721IncorrectOwner",
      "type": "error"
    },
    {
      "inputs": [
        {
          "internalType": "address",
          "name": "operator",
          "type": "address"
        },
        {
          "internalType": "uint256",
          "name": "tokenId",
          "type": "uint256"
        }
      ],
      "name": "ERC721InsufficientApproval",
      "type": "error"
    },
    {
      "inputs": [
        {
          "internalType": "address",
          "name": "approver",
          "type": "address"
        }
      ],
      "name": "ERC721InvalidApprover",
      "type": "error"
    },
    {
      "inputs": [
        {
          "internalType": "address",
          "name": "operator",
          "type": "address"
        }
      ],
      "name": "ERC721InvalidOperator",
      "type": "error"
    },
    {
      "inputs": [
        {
          "internalType": "address",
          "name": "owner",
          "type": "address"
        }
      ],
      "name": "ERC721InvalidOwner",
      "type": "error"
    },
    {
      "inputs": [
        {
          "internalType": "address",
          "name": "receiver",
          "type": "address"
        }
      ],
      "name": "ERC721InvalidReceiver",
      "type": "error"
    },
    {
      "inputs": [
        {
          "internalType": "address",
          "name": "sender",
          "type": "address"
        }
      ],
      "name": "ERC721InvalidSender",
      "type": "error"
    },
    {
      "inputs": [
        {
          "internalType": "uint256",
          "name": "tokenId",
          "type": "uint256"
        }
      ],
      "name": "ERC721NonexistentToken",
      "type": "error"
    },
    {
      "anonymous": false,
      "inputs": [
        {
          "indexed": true,
          "internalType": "address",
          "name": "owner",
          "type": "address"
        },
        {
          "indexed": true,
          "internalType": "address",
          "name": "approved",
          "type": "address"
        },
        {
          "indexed": true,
          "internalType": "uint256",
          "name": "tokenId",
          "type": "uint256"
        }
      ],
      "name": "Approval",
      "type": "event"
    },
    {
      "anonymous": false,
      "inputs": [
        {
          "indexed": true,
          "internalType": "address",
          "name": "owner",
          "type": "address"
        },
        {
          "indexed": true,
          "internalType": "address",
          "name": "operator",
          "type": "address"
        },
        {
          "indexed": false,
          "internalType": "bool",
          "name": "approved",
          "type": "bool"
        }
      ],
      "name": "ApprovalForAll",
      "type": "event"
    },
    {
      "anonymous": false,
      "inputs": [
        {
          "indexed": false,
          "internalType": "uint256",
          "name": "_fromTokenId",
          "type": "uint256"
        },
        {
          "indexed": false,
          "internalType": "uint256",
          "name": "_toTokenId",
          "type": "uint256"
        }
      ],
      "name": "BatchMetadataUpdate",
      "type": "event"
    },
    {
      "anonymous": false,
      "inputs": [
        {
          "indexed": false,
          "internalType": "address",
          "name": "to",
          "type": "address"
        },
        {
          "indexed": false,
          "internalType": "uint256",
          "name": "tokenId",
          "type": "uint256"
        }
      ],
      "name": "CertificateMinted",
      "type": "event"
    },
    {
      "anonymous": false,
      "inputs": [
        {
          "indexed": false,
          "internalType": "uint256",
          "name": "_tokenId",
          "type": "uint256"
        }
      ],
      "name": "MetadataUpdate",
      "type": "event"
    },
    {
      "anonymous": false,
      "inputs": [
        {
          "indexed": true,
          "internalType": "address",
          "name": "from",
          "type": "address"
        },
        {
          "indexed": true,
          "internalType": "address",
          "name": "to",
          "type": "address"
        },
        {
          "indexed": true,
          "internalType": "uint256",
          "name": "tokenId",
          "type": "uint256"
        }
      ],
      "name": "Transfer",
      "type": "event"
    },
    {
      "inputs": [
        {
          "internalType": "address",
          "name": "to",
          "type": "address"
        },
        {
          "internalType": "uint256",
          "name": "tokenId",
          "type": "uint256"
        }
      ],
      "name": "approve",
      "outputs": [],
      "stateMutability": "nonpayable",
      "type": "function"
    },
    {
      "inputs": [
        {
          "internalType": "address",
          "name": "owner",
          "type": "address"
        }
      ],
      "name": "balanceOf",
      "outputs": [
        {
          "internalType": "uint256",
          "name": "",
          "type": "uint256"
        }
      ],
      "stateMutability": "view",
      "type": "function"
    },
    {
      "inputs": [
        {
          "internalType": "uint256",
          "name": "tokenId",
          "type": "uint256"
        }
      ],
      "name": "getApproved",
      "outputs": [
        {
          "internalType": "address",
          "name": "",
          "type": "address"
        }
      ],
      "stateMutability": "view",
      "type": "function"
    },
    {
      "inputs": [
        {
          "internalType": "uint256",
          "name": "tokenId",
          "type": "uint256"
        }
      ],
      "name": "getIssuedTo",
      "outputs": [
        {
          "internalType": "address",
          "name": "",
          "type": "address"
        }
      ],
      "stateMutability": "view",
      "type": "function"
    },
    {
      "inputs": [
        {
          "internalType": "address",
          "name": "owner",
          "type": "address"
        },
        {
          "internalType": "address",
          "name": "operator",
          "type": "address"
        }
      ],
      "name": "isApprovedForAll",
      "outputs": [
        {
          "internalType": "bool",
          "name": "",
          "type": "bool"
        }
      ],
      "stateMutability": "view",
      "type": "function"
    },
    {
      "inputs": [
        {
          "internalType": "uint256",
          "name": "",
          "type": "uint256"
        }
      ],
      "name": "issuedTo",
      "outputs": [
        {
          "internalType": "address",
          "name": "",
          "type": "address"
        }
      ],
      "stateMutability": "view",
      "type": "function"
    },
    {
      "inputs": [
        {
          "internalType": "address",
          "name": "to",
          "type": "address"
        },
        {
          "internalType": "string",
          "name": "tokenURI",
          "type": "string"
        }
      ],
      "name": "mintCertificate",
      "outputs": [
        {
          "internalType": "uint256",
          "name": "",
          "type": "uint256"
        }
      ],
      "stateMutability": "nonpayable",
      "type": "function"
    },
    {
      "inputs": [],
      "name": "name",
      "outputs": [
        {
          "internalType": "string",
          "name": "",
          "type": "string"
        }
      ],
      "stateMutability": "view",
      "type": "function"
    },
    {
      "inputs": [],
      "name": "nextTokenId",
      "outputs": [
        {
          "internalType": "uint256",
          "name": "",
          "type": "uint256"
        }
      ],
      "stateMutability": "view",
      "type": "function"
    },
    {
      "inputs": [
        {
          "internalType": "uint256",
          "name": "tokenId",
          "type": "uint256"
        }
      ],
      "name": "ownerOf",
      "outputs": [
        {
          "internalType": "address",
          "name": "",
          "type": "address"
        }
      ],
      "stateMutability": "view",
      "type": "function"
    },
    {
      "inputs": [
        {
          "internalType": "address",
          "name": "from",
          "type": "address"
        },
        {
          "internalType": "address",
          "name": "to",
          "type": "address"
        },
        {
          "internalType": "uint256",
          "name": "tokenId",
          "type": "uint256"
        }
      ],
      "name": "safeTransferFrom",
      "outputs": [],
      "stateMutability": "nonpayable",
      "type": "function"
    },
    {
      "inputs": [
        {
          "internalType": "address",
          "name": "from",
          "type": "address"
        },
        {
          "internalType": "address",
          "name": "to",
          "type": "address"
        },
        {
          "internalType": "uint256",
          "name": "tokenId",
          "type": "uint256"
        },
        {
          "internalType": "bytes",
          "name": "data",
          "type": "bytes"
        }
      ],
      "name": "safeTransferFrom",
      "outputs": [],
      "stateMutability": "nonpayable",
      "type": "function"
    },
    {
      "inputs": [
        {
          "internalType": "address",
          "name": "operator",
          "type": "address"
        },
        {
          "internalType": "bool",
          "name": "approved",
          "type": "bool"
        }
      ],
      "name": "setApprovalForAll",
      "outputs": [],
      "stateMutability": "nonpayable",
      "type": "function"
    },
    {
      "inputs": [
        {
          "internalType": "bytes4",
          "name": "interfaceId",
          "type": "bytes4"
        }
      ],
      "name": "supportsInterface",
      "outputs": [
        {
          "internalType": "bool",
          "name": "",
          "type": "bool"
        }
      ],
      "stateMutability": "view",
      "type": "function"
    },
    {
      "inputs": [],
      "name": "symbol",
      "outputs": [
        {
          "internalType": "string",
          "name": "",
          "type": "string"
        }
      ],
      "stateMutability": "view",
      "type": "function"
    },
    {
      "inputs": [
        {
          "internalType": "uint256",
          "name": "tokenId",
          "type": "uint256"
        }
      ],
      "name": "tokenURI",
      "outputs": [
        {
          "internalType": "string",
          "name": "",
          "type": "string"
        }
      ],
      "stateMutability": "view",
      "type": "function"
    },
    {
      "inputs": [
        {
          "internalType": "address",
          "name": "from",
          "type": "address"
        },
        {
          "internalType": "address",
          "name": "to",
          "type": "address"
        },
        {
          "internalType": "uint256",
          "name": "tokenId",
          "type": "uint256"
        }
      ],
      "name": "transferFrom",
      "outputs": [],
      "stateMutability": "nonpayable",
      "type": "function"
    }
  ],
  "bytecode": "0x608060405234801561001057600080fd5b506040518060400160405280601981526020017f446563656e7472616c697a6564204365727469666963617465000000000000008152506040518060400160405280600581526020017f4443455254000000000000000000000000000000000000000000000000000000815250816000908161008c91906102f4565b50806001908161009c91906102f4565b5050506103c6565b600081519050919050565b7f4e487b7100000000000000000000000000000000000000000000000000000000600052604160045260246000fd5b7f4e487b7100000000000000000000000000000000000000000000000000000000600052602260045260246000fd5b6000600282049050600182168061012557607f821691505b602082108103610138576101376100de565b5b50919050565b60008190508160005260206000209050919050565b60006020601f8301049050919050565b600082821b905092915050565b6000600883026101a07fffffffffffffffffffffffffffffffffffffffffffffffffffffffffffffffff82610163565b6101aa8683610163565b95508019841693508086168417925050509392505050565b6000819050919050565b6000819050919050565b60006101f16101ec6101e7846101c2565b6101cc565b6101c2565b9050919050565b6000819050919050565b61020b836101d6565b61021f610217826101f8565b848454610170565b825550505050565b600090565b610234610227565b61023f818484610202565b505050565b5b818110156102635761025860008261022c565b600181019050610245565b5050565b601f8211156102a8576102798161013e565b61028284610153565b81016020851015610291578190505b6102a561029d85610153565b830182610244565b50505b505050565b600082821c905092915050565b60006102cb600019846008026102ad565b1980831691505092915050565b60006102e483836102ba565b9150826002028217905092915050565b6102fd826100a4565b67ffffffffffffffff811115610316576103156100af565b5b610320825461010d565b61032b828285610267565b600060209050601f83116001811461035e576000841561034c578287015190505b61035685826102d8565b8655506103be565b601f19841661036c8661013e565b60005b828110156103945784890151825560018201915060208501945060208101905061036f565b868310156103b157848901516103ad601f8916826102ba565b8355505b6001600288020188555050505b505050505050565b612562806103d56000396000f3fe608060405234801561001057600080fd5b506004361061010b5760003560e01c806370a08231116100a2578063ac45630411610071578063ac456304146102ca578063b88d4fde146102fa578063c4eec68014610316578063c87b56dd14610346578063e985e9c5146103765761010b565b806370a082311461024257806375794a3c1461027257806395d89b4114610290578063a22cb465146102ae5761010b565b8063095ea7b3116100de578063095ea7b3146101be57806323b872dd146101da57806342842e0e146101f65780636352211e146102125761010b565b806301ffc9a71461011057806306fdde03146101405780630712249f1461015e578063081812fc1461018e575b600080fd5b61012a600480360381019061012591906119ba565b6103a6565b6040516101379190611a02565b60405180910390f35b610148610407565b6040516101559190611aad565b60405180910390f35b61017860048036038101906101739190611c62565b610499565b6040516101859190611cd7565b60405180910390f35b6101a860048036038101906101a39190611d1e565b610562565b6040516101b59190611d5a565b60405180910390f35b6101d860048036038101906101d39190611d75565b61057e565b005b6101f460048036038101906101ef9190611db5565b610594565b005b610210600480360381019061020b9190611db5565b610696565b005b61022c60048036038101906102279190611d1e565b6106b6565b6040516102399190611d5a565b60405180910390f35b61025c60048036038101906102579190611e08565b6106c8565b6040516102699190611cd7565b60405180910390f35b61027a610782565b6040516102879190611cd7565b60405180910390f35b610298610788565b6040516102a59190611aad565b60405180910390f35b6102c860048036038101906102c39190611e61565b61081a565b005b6102e460048036038101906102df9190611d1e565b610830565b6040516102f19190611d5a565b60405180910390f35b610314600480360381019061030f9190611f42565b61086d565b005b610330600480360381019061032b9190611d1e565b610892565b60405161033d9190611d5a565b60405180910390f35b610360600480360381019061035b9190611d1e565b6108c5565b60405161036d9190611aad565b60405180910390f35b610390600480360381019061038b9190611fc5565b6109d8565b60405161039d9190611a02565b60405180910390f35b6000634906490660e01b7bffffffffffffffffffffffffffffffffffffffffffffffffffffffff1916827bffffffffffffffffffffffffffffffffffffffffffffffffffffffff1916148061040057506103ff82610a6c565b5b9050919050565b60606000805461041690612034565b80601f016020809104026020016040519081016040528092919081815260200182805461044290612034565b801561048f5780601f106104645761010080835404028352916020019161048f565b820191906000526020600020905b81548152906001019060200180831161047257829003601f168201915b5050505050905090565b60008060075490506104ab8482610b4e565b6104b58184610c47565b836008600083815260200190815260200160002060006101000a81548173ffffffffffffffffffffffffffffffffffffffff021916908373ffffffffffffffffffffffffffffffffffffffff1602179055506007600081548092919061051a90612094565b91905055507fe351802b022b8ba03353eafd05148198c0dc13061427df4dbbbbfc5c726a1b9e84826040516105509291906120dc565b60405180910390a18091505092915050565b600061056d82610ca3565b5061057782610d2b565b9050919050565b610590828261058b610d68565b610d70565b5050565b600073ffffffffffffffffffffffffffffffffffffffff168273ffffffffffffffffffffffffffffffffffffffff16036106065760006040517f64a0ae920000000000000000000000000000000000000000000000000000000081526004016105fd9190611d5a565b60405180910390fd5b600061061a8383610615610d68565b610d82565b90508373ffffffffffffffffffffffffffffffffffffffff168173ffffffffffffffffffffffffffffffffffffffff1614610690578382826040517f64283d7b00000000000000000000000000000000000000000000000000000000815260040161068793929190612105565b60405180910390fd5b50505050565b6106b18383836040518060200160405280600081525061086d565b505050565b60006106c182610ca3565b9050919050565b60008073ffffffffffffffffffffffffffffffffffffffff168273ffffffffffffffffffffffffffffffffffffffff160361073b5760006040517f89c62b640000000000000000000000000000000000000000000000000000000081526004016107329190611d5a565b60405180910390fd5b600360008373ffffffffffffffffffffffffffffffffffffffff1673ffffffffffffffffffffffffffffffffffffffff168152602001908152602001600020549050919050565b60075481565b60606001805461079790612034565b80601f01602080910402602001604051908101604052809291908181526020018280546107c390612034565b80156108105780601f106107e557610100808354040283529160200191610810565b820191906000526020600020905b8154815290600101906020018083116107f357829003601f168201915b5050505050905090565b61082c610825610d68565b8383610f9c565b5050565b60006008600083815260200190815260200160002060009054906101000a900473ffffffffffffffffffffffffffffffffffffffff169050919050565b610878848484610594565b61088c610883610d68565b8585858561110b565b50505050565b60086020528060005260406000206000915054906101000a900473ffffffffffffffffffffffffffffffffffffffff1681565b60606108d082610ca3565b5060006006600084815260200190815260200160002080546108f190612034565b80601f016020809104026020016040519081016040528092919081815260200182805461091d90612034565b801561096a5780601f1061093f5761010080835404028352916020019161096a565b820191906000526020600020905b81548152906001019060200180831161094d57829003601f168201915b50505050509050600061097b6112bc565b905060008151036109905781925050506109d3565b6000825111156109c55780826040516020016109ad929190612178565b604051602081830303815290604052925050506109d3565b6109ce846112d3565b925050505b919050565b6000600560008473ffffffffffffffffffffffffffffffffffffffff1673ffffffffffffffffffffffffffffffffffffffff16815260200190815260200160002060008373ffffffffffffffffffffffffffffffffffffffff1673ffffffffffffffffffffffffffffffffffffffff16815260200190815260200160002060009054906101000a900460ff16905092915050565b60007f80ac58cd000000000000000000000000000000000000000000000000000000007bffffffffffffffffffffffffffffffffffffffffffffffffffffffff1916827bffffffffffffffffffffffffffffffffffffffffffffffffffffffff19161480610b3757507f5b5e139f000000000000000000000000000000000000000000000000000000007bffffffffffffffffffffffffffffffffffffffffffffffffffffffff1916827bffffffffffffffffffffffffffffffffffffffffffffffffffffffff1916145b80610b475750610b468261133c565b5b9050919050565b600073ffffffffffffffffffffffffffffffffffffffff168273ffffffffffffffffffffffffffffffffffffffff1603610bc05760006040517f64a0ae92000000000000000000000000000000000000000000000000000000008152600401610bb79190611d5a565b60405180910390fd5b6000610bce83836000610d82565b9050600073ffffffffffffffffffffffffffffffffffffffff168173ffffffffffffffffffffffffffffffffffffffff1614610c425760006040517f73c6ac6e000000000000000000000000000000000000000000000000000000008152600401610c399190611d5a565b60405180910390fd5b505050565b80600660008481526020019081526020016000209081610c679190612348565b507ff8e1a15aba9398e019f0b49df1a4fde98ee17ae345cb5f6b5e2c27f5033e8ce782604051610c979190611cd7565b60405180910390a15050565b600080610caf836113a6565b9050600073ffffffffffffffffffffffffffffffffffffffff168173ffffffffffffffffffffffffffffffffffffffff1603610d2257826040517f7e273289000000000000000000000000000000000000000000000000000000008152600401610d199190611cd7565b60405180910390fd5b80915050919050565b60006004600083815260200190815260200160002060009054906101000a900473ffffffffffffffffffffffffffffffffffffffff169050919050565b600033905090565b610d7d83838360016113e3565b505050565b600080610d8e846113a6565b9050600073ffffffffffffffffffffffffffffffffffffffff168373ffffffffffffffffffffffffffffffffffffffff1614610dd057610dcf8184866115a8565b5b600073ffffffffffffffffffffffffffffffffffffffff168173ffffffffffffffffffffffffffffffffffffffff1614610e6157610e126000856000806113e3565b6001600360008373ffffffffffffffffffffffffffffffffffffffff1673ffffffffffffffffffffffffffffffffffffffff168152602001908152602001600020600082825403925050819055505b600073ffffffffffffffffffffffffffffffffffffffff168573ffffffffffffffffffffffffffffffffffffffff1614610ee4576001600360008773ffffffffffffffffffffffffffffffffffffffff1673ffffffffffffffffffffffffffffffffffffffff168152602001908152602001600020600082825401925050819055505b846002600086815260200190815260200160002060006101000a81548173ffffffffffffffffffffffffffffffffffffffff021916908373ffffffffffffffffffffffffffffffffffffffff160217905550838573ffffffffffffffffffffffffffffffffffffffff168273ffffffffffffffffffffffffffffffffffffffff167fddf252ad1be2c89b69c2b068fc378daa952ba7f163c4a11628f55a4df523b3ef60405160405180910390a4809150509392505050565b600073ffffffffffffffffffffffffffffffffffffffff168273ffffffffffffffffffffffffffffffffffffffff160361100d57816040517f5b08ba180000000000000000000000000000000000000000000000000000000081526004016110049190611d5a565b60405180910390fd5b80600560008573ffffffffffffffffffffffffffffffffffffffff1673ffffffffffffffffffffffffffffffffffffffff16815260200190815260200160002060008473ffffffffffffffffffffffffffffffffffffffff1673ffffffffffffffffffffffffffffffffffffffff16815260200190815260200160002060006101000a81548160ff0219169083151502179055508173ffffffffffffffffffffffffffffffffffffffff168373ffffffffffffffffffffffffffffffffffffffff167f17307eab39ab6107e8899845ad3d59bd9653f200f220920489ca2b5937696c31836040516110fe9190611a02565b60405180910390a3505050565b60008373ffffffffffffffffffffffffffffffffffffffff163b11156112b5578273ffffffffffffffffffffffffffffffffffffffff1663150b7a02868685856040518563ffffffff1660e01b815260040161116a949392919061246f565b6020604051808303816000875af19250505080156111a657506040513d601f19601f820116820180604052508101906111a391906124d0565b60015b61122a573d80600081146111d6576040519150601f19603f3d011682016040523d82523d6000602084013e6111db565b606091505b50600081510361122257836040517f64a0ae920000000000000000000000000000000000000000000000000000000081526004016112199190611d5a565b60405180910390fd5b805181602001fd5b63150b7a0260e01b7bffffffffffffffffffffffffffffffffffffffffffffffffffffffff1916817bffffffffffffffffffffffffffffffffffffffffffffffffffffffff1916146112b357836040517f64a0ae920000000000000000000000000000000000000000000000000000000081526004016112aa9190611d5a565b60405180910390fd5b505b5050505050565b606060405180602001604052806000815250905090565b60606112de82610ca3565b5060006112e96112bc565b905060008151116113095760405180602001604052806000815250611334565b806113138461166c565b604051602001611324929190612178565b6040516020818303038152906040525b915050919050565b60007f01ffc9a7000000000000000000000000000000000000000000000000000000007bffffffffffffffffffffffffffffffffffffffffffffffffffffffff1916827bffffffffffffffffffffffffffffffffffffffffffffffffffffffff1916149050919050565b60006002600083815260200190815260200160002060009054906101000a900473ffffffffffffffffffffffffffffffffffffffff169050919050565b808061141c5750600073ffffffffffffffffffffffffffffffffffffffff168273ffffffffffffffffffffffffffffffffffffffff1614155b1561155057600061142c84610ca3565b9050600073ffffffffffffffffffffffffffffffffffffffff168373ffffffffffffffffffffffffffffffffffffffff161415801561149757508273ffffffffffffffffffffffffffffffffffffffff168173ffffffffffffffffffffffffffffffffffffffff1614155b80156114aa57506114a881846109d8565b155b156114ec57826040517fa9fbf51f0000000000000000000000000000000000000000000000000000000081526004016114e39190611d5a565b60405180910390fd5b811561154e57838573ffffffffffffffffffffffffffffffffffffffff168273ffffffffffffffffffffffffffffffffffffffff167f8c5be1e5ebec7d5bd14f71427d1e84f3dd0314c0f7b2291e5b200ac8c7c3b92560405160405180910390a45b505b836004600085815260200190815260200160002060006101000a81548173ffffffffffffffffffffffffffffffffffffffff021916908373ffffffffffffffffffffffffffffffffffffffff16021790555050505050565b6115b383838361173a565b61166757600073ffffffffffffffffffffffffffffffffffffffff168373ffffffffffffffffffffffffffffffffffffffff160361162857806040517f7e27328900000000000000000000000000000000000000000000000000000000815260040161161f9190611cd7565b60405180910390fd5b81816040517f177e802f00000000000000000000000000000000000000000000000000000000815260040161165e9291906120dc565b60405180910390fd5b505050565b60606000600161167b846117fb565b01905060008167ffffffffffffffff81111561169a57611699611b37565b5b6040519080825280601f01601f1916602001820160405280156116cc5781602001600182028036833780820191505090505b509050600082602001820190505b60011561172f578080600190039150507f3031323334353637383961626364656600000000000000000000000000000000600a86061a8153600a8581611723576117226124fd565b5b049450600085036116da575b819350505050919050565b60008073ffffffffffffffffffffffffffffffffffffffff168373ffffffffffffffffffffffffffffffffffffffff16141580156117f257508273ffffffffffffffffffffffffffffffffffffffff168473ffffffffffffffffffffffffffffffffffffffff1614806117b357506117b284846109d8565b5b806117f157508273ffffffffffffffffffffffffffffffffffffffff166117d983610d2b565b73ffffffffffffffffffffffffffffffffffffffff16145b5b90509392505050565b600080600090507a184f03e93ff9f4daa797ed6e38ed64bf6a1f0100000000000000008310611859577a184f03e93ff9f4daa797ed6e38ed64bf6a1f010000000000000000838161184f5761184e6124fd565b5b0492506040810190505b6d04ee2d6d415b85acef81000000008310611896576d04ee2d6d415b85acef8100000000838161188c5761188b6124fd565b5b0492506020810190505b662386f26fc1000083106118c557662386f26fc1000083816118bb576118ba6124fd565b5b0492506010810190505b6305f5e10083106118ee576305f5e10083816118e4576118e36124fd565b5b0492506008810190505b6127108310611913576127108381611909576119086124fd565b5b0492506004810190505b60648310611936576064838161192c5761192b6124fd565b5b0492506002810190505b600a8310611945576001810190505b80915050919050565b6000604051905090565b600080fd5b600080fd5b60007fffffffff0000000000000000000000000000000000000000000000000000000082169050919050565b61199781611962565b81146119a257600080fd5b50565b6000813590506119b48161198e565b92915050565b6000602082840312156119d0576119cf611958565b5b60006119de848285016119a5565b91505092915050565b60008115159050919050565b6119fc816119e7565b82525050565b6000602082019050611a1760008301846119f3565b92915050565b600081519050919050565b600082825260208201905092915050565b60005b83811015611a57578082015181840152602081019050611a3c565b60008484015250505050565b6000601f19601f8301169050919050565b6000611a7f82611a1d565b611a898185611a28565b9350611a99818560208601611a39565b611aa281611a63565b840191505092915050565b60006020820190508181036000830152611ac78184611a74565b905092915050565b600073ffffffffffffffffffffffffffffffffffffffff82169050919050565b6000611afa82611acf565b9050919050565b611b0a81611aef565b8114611b1557600080fd5b50565b600081359050611b2781611b01565b92915050565b600080fd5b600080fd5b7f4e487b7100000000000000000000000000000000000000000000000000000000600052604160045260246000fd5b611b6f82611a63565b810181811067ffffffffffffffff82111715611b8e57611b8d611b37565b5b80604052505050565b6000611ba161194e565b9050611bad8282611b66565b919050565b600067ffffffffffffffff821115611bcd57611bcc611b37565b5b611bd682611a63565b9050602081019050919050565b82818337600083830152505050565b6000611c05611c0084611bb2565b611b97565b905082815260208101848484011115611c2157611c20611b32565b5b611c2c848285611be3565b509392505050565b600082601f830112611c4957611c48611b2d565b5b8135611c59848260208601611bf2565b91505092915050565b60008060408385031215611c7957611c78611958565b5b6000611c8785828601611b18565b925050602083013567ffffffffffffffff811115611ca857611ca761195d565b5b611cb485828601611c34565b9150509250929050565b6000819050919050565b611cd181611cbe565b82525050565b6000602082019050611cec6000830184611cc8565b92915050565b611cfb81611cbe565b8114611d0657600080fd5b50565b600081359050611d1881611cf2565b92915050565b600060208284031215611d3457611d33611958565b5b6000611d4284828501611d09565b91505092915050565b611d5481611aef565b82525050565b6000602082019050611d6f6000830184611d4b565b92915050565b60008060408385031215611d8c57611d8b611958565b5b6000611d9a85828601611b18565b9250506020611dab85828601611d09565b9150509250929050565b600080600060608486031215611dce57611dcd611958565b5b6000611ddc86828701611b18565b9350506020611ded86828701611b18565b9250506040611dfe86828701611d09565b9150509250925092565b600060208284031215611e1e57611e1d611958565b5b6000611e2c84828501611b18565b91505092915050565b611e3e816119e7565b8114611e4957600080fd5b50565b600081359050611e5b81611e35565b92915050565b60008060408385031215611e7857611e77611958565b5b6000611e8685828601611b18565b9250506020611e9785828601611e4c565b9150509250929050565b600067ffffffffffffffff821115611ebc57611ebb611b37565b5b611ec582611a63565b9050602081019050919050565b6000611ee5611ee084611ea1565b611b97565b905082815260208101848484011115611f0157611f00611b32565b5b611f0c848285611be3565b509392505050565b600082601f830112611f2957611f28611b2d565b5b8135611f39848260208601611ed2565b91505092915050565b60008060008060808587031215611f5c57611f5b611958565b5b6000611f6a87828801611b18565b9450506020611f7b87828801611b18565b9350506040611f8c87828801611d09565b925050606085013567ffffffffffffffff811115611fad57611fac61195d565b5b611fb987828801611f14565b91505092959194509250565b60008060408385031215611fdc57611fdb611958565b5b6000611fea85828601611b18565b9250506020611ffb85828601611b18565b9150509250929050565b7f4e487b7100000000000000000000000000000000000000000000000000000000600052602260045260246000fd5b6000600282049050600182168061204c57607f821691505b60208210810361205f5761205e612005565b5b50919050565b7f4e487b7100000000000000000000000000000000000000000000000000000000600052601160045260246000fd5b600061209f82611cbe565b91507fffffffffffffffffffffffffffffffffffffffffffffffffffffffffffffffff82036120d1576120d0612065565b5b600182019050919050565b60006040820190506120f16000830185611d4b565b6120fe6020830184611cc8565b9392505050565b600060608201905061211a6000830186611d4b565b6121276020830185611cc8565b6121346040830184611d4b565b949350505050565b600081905092915050565b600061215282611a1d565b61215c818561213c565b935061216c818560208601611a39565b80840191505092915050565b60006121848285612147565b91506121908284612147565b91508190509392505050565b60008190508160005260206000209050919050565b60006020601f8301049050919050565b600082821b905092915050565b6000600883026121fe7fffffffffffffffffffffffffffffffffffffffffffffffffffffffffffffffff826121c1565b61220886836121c1565b95508019841693508086168417925050509392505050565b6000819050919050565b600061224561224061223b84611cbe565b612220565b611cbe565b9050919050565b6000819050919050565b61225f8361222a565b61227361226b8261224c565b8484546121ce565b825550505050565b600090565b61228861227b565b612293818484612256565b505050565b5b818110156122b7576122ac600082612280565b600181019050612299565b5050565b601f8211156122fc576122cd8161219c565b6122d6846121b1565b810160208510156122e5578190505b6122f96122f1856121b1565b830182612298565b50505b505050565b600082821c905092915050565b600061231f60001984600802612301565b1980831691505092915050565b6000612338838361230e565b9150826002028217905092915050565b61235182611a1d565b67ffffffffffffffff81111561236a57612369611b37565b5b6123748254612034565b61237f8282856122bb565b600060209050601f8311600181146123b257600084156123a0578287015190505b6123aa858261232c565b865550612412565b601f1984166123c08661219c565b60005b828110156123e8578489015182556001820191506020850194506020810190506123c3565b868310156124055784890151612401601f89168261230e565b8355505b6001600288020188555050505b505050505050565b600081519050919050565b600082825260208201905092915050565b60006124418261241a565b61244b8185612425565b935061245b818560208601611a39565b61246481611a63565b840191505092915050565b60006080820190506124846000830187611d4b565b6124916020830186611d4b565b61249e6040830185611cc8565b81810360608301526124b08184612436565b905095945050505050565b6000815190506124ca8161198e565b92915050565b6000602082840312156124e6576124e5611958565b5b60006124f4848285016124bb565b91505092915050565b7f4e487b7100000000000000000000000000000000000000000000000000000000600052601260045260246000fdfea2646970667358221220a706514f016526beb9a6a8f665d32dd231add4b4d033b8ca861ed8b7da9f5f5764736f6c634300081c0033",
  "linkReferences": {},
  "deployedLinkReferences": {}
}