{
  "_format": "hh-sol-artifact-1",
  "contractName": "CertificateFactory",
  "sourceName": "contracts/CertificateFactory.sol",
  "abi": [
    {
      "inputs": [
        {
          "internalType": "address",
          "name": "_certificateNFTAddress",
          "type": "address"
        }
      ],
      "stateMutability": "nonpayable",
      "type": "constructor"
    },
    {
      "inputs": [
        {
          "internalType": "address",
          "name": "issuer",
          "type": "address"
        }
      ],
      "name": "authorizeIssuer",
      "outputs": [],
      "stateMutability": "nonpayable",
      "type": "function"
    },
    {
      "inputs": [
        {
          "internalType": "address",
          "name": "",
          "type": "address"
        }
      ],
      "name": "authorizedIssuers",
      "outputs": [
        {
          "internalType": "bool",
          "name": "",
          "type": "bool"
        }
      ],
      "stateMutability": "view",
      "type": "function"
    },
    {
      "inputs": [],
      "name": "certificateNFT",
      "outputs": [
        {
          "internalType": "contract CertificateNFT",
          "name": "",
          "type": "address"
        }
      ],
      "stateMutability": "view",
      "type": "function"
    },
    {
      "inputs": [
        {
          "internalType": "address",
          "name": "issuer",
          "type": "address"
        }
      ],
      "name": "isAuthorized",
      "outputs": [
        {
          "internalType": "bool",
          "name": "",
          "type": "bool"
        }
      ],
      "stateMutability": "view",
      "type": "function"
    },
    {
      "inputs": [
        {
          "internalType": "address",
          "name": "student",
          "type": "address"
        },
        {
          "internalType": "string",
          "name": "uri",
          "type": "string"
        }
      ],
      "name": "issueCertificate",
      "outputs": [],
      "stateMutability": "nonpayable",
      "type": "function"
    },
    {
      "inputs": [],
      "name": "owner",
      "outputs": [
        {
          "internalType": "address",
          "name": "",
          "type": "address"
        }
      ],
      "stateMutability": "view",
      "type": "function"
    },
    {
      "inputs": [
        {
          "internalType": "address",
          "name": "issuer",
          "type": "address"
        }
      ],
      "name": "revokeIssuer",
      "outputs": [],
      "stateMutability": "nonpayable",
      "type": "function"
    },
    {
      "inputs": [
        {
          "internalType": "uint256",
          "name": "tokenId",
          "type": "uint256"
        },
        {
          "internalType": "address",
          "name": "newOwner",
          "type": "address"
        }
      ],
      "name": "transferCertificate",
      "outputs": [],
      "stateMutability": "nonpayable",
      "type": "function"
    },
    {
      "inputs": [
        {
          "internalType": "uint256",
          "name": "tokenId",
          "type": "uint256"
        }
      ],
      "name": "verifyCertificate",
      "outputs": [
        {
          "internalType": "address",
          "name": "currentOwner",
          "type": "address"
        },
        {
          "internalType": "string",
          "name": "metadataURI",
          "type": "string"
        },
        {
          "internalType": "address",
          "name": "originalRecipient",
          "type": "address"
        }
      ],
      "stateMutability": "view",
      "type": "function"
    }
  ],
  "bytecode": "0x608060405234801561001057600080fd5b5060405161129338038061129383398181016040528101906100329190610173565b336000806101000a81548173ffffffffffffffffffffffffffffffffffffffff021916908373ffffffffffffffffffffffffffffffffffffffff16021790555080600260006101000a81548173ffffffffffffffffffffffffffffffffffffffff021916908373ffffffffffffffffffffffffffffffffffffffff16021790555060018060003373ffffffffffffffffffffffffffffffffffffffff1673ffffffffffffffffffffffffffffffffffffffff16815260200190815260200160002060006101000a81548160ff021916908315150217905550506101a0565b600080fd5b600073ffffffffffffffffffffffffffffffffffffffff82169050919050565b600061014082610115565b9050919050565b61015081610135565b811461015b57600080fd5b50565b60008151905061016d81610147565b92915050565b60006020828403121561018957610188610110565b5b60006101978482850161015e565b91505092915050565b6110e4806101af6000396000f3fe608060405234801561001057600080fd5b50600436106100925760003560e01c806391aec72a1161006657806391aec72a1461011f578063bb721aab1461013d578063cf3ae93414610159578063f731fa0f14610175578063fe9fbb80146101a557610092565b8062629679146100975780631692a942146100b3578063436693d5146100e55780638da5cb5b14610101575b600080fd5b6100b160048036038101906100ac9190610993565b6101d5565b005b6100cd60048036038101906100c891906109f6565b6102be565b6040516100dc93929190610ac2565b60405180910390f35b6100ff60048036038101906100fa9190610993565b6104aa565b005b610109610592565b6040516101169190610b00565b60405180910390f35b6101276105b6565b6040516101349190610b7a565b60405180910390f35b61015760048036038101906101529190610cca565b6105dc565b005b610173600480360381019061016e9190610d26565b61070d565b005b61018f600480360381019061018a9190610993565b6108ab565b60405161019c9190610d81565b60405180910390f35b6101bf60048036038101906101ba9190610993565b6108cb565b6040516101cc9190610d81565b60405180910390f35b60008054906101000a900473ffffffffffffffffffffffffffffffffffffffff1673ffffffffffffffffffffffffffffffffffffffff163373ffffffffffffffffffffffffffffffffffffffff1614610263576040517f08c379a000000000000000000000000000000000000000000000000000000000815260040161025a90610de8565b60405180910390fd5b6000600160008373ffffffffffffffffffffffffffffffffffffffff1673ffffffffffffffffffffffffffffffffffffffff16815260200190815260200160002060006101000a81548160ff02191690831515021790555050565b600060606000600260009054906101000a900473ffffffffffffffffffffffffffffffffffffffff1673ffffffffffffffffffffffffffffffffffffffff16636352211e856040518263ffffffff1660e01b815260040161031f9190610e17565b602060405180830381865afa15801561033c573d6000803e3d6000fd5b505050506040513d601f19601f820116820180604052508101906103609190610e47565b9250600260009054906101000a900473ffffffffffffffffffffffffffffffffffffffff1673ffffffffffffffffffffffffffffffffffffffff1663c87b56dd856040518263ffffffff1660e01b81526004016103bd9190610e17565b600060405180830381865afa1580156103da573d6000803e3d6000fd5b505050506040513d6000823e3d601f19601f820116820180604052508101906104039190610ee4565b9150600260009054906101000a900473ffffffffffffffffffffffffffffffffffffffff1673ffffffffffffffffffffffffffffffffffffffff1663ac456304856040518263ffffffff1660e01b81526004016104609190610e17565b602060405180830381865afa15801561047d573d6000803e3d6000fd5b505050506040513d601f19601f820116820180604052508101906104a19190610e47565b90509193909250565b60008054906101000a900473ffffffffffffffffffffffffffffffffffffffff1673ffffffffffffffffffffffffffffffffffffffff163373ffffffffffffffffffffffffffffffffffffffff1614610538576040517f08c379a000000000000000000000000000000000000000000000000000000000815260040161052f90610de8565b60405180910390fd5b60018060008373ffffffffffffffffffffffffffffffffffffffff1673ffffffffffffffffffffffffffffffffffffffff16815260200190815260200160002060006101000a81548160ff02191690831515021790555050565b60008054906101000a900473ffffffffffffffffffffffffffffffffffffffff1681565b600260009054906101000a900473ffffffffffffffffffffffffffffffffffffffff1681565b600160003373ffffffffffffffffffffffffffffffffffffffff1673ffffffffffffffffffffffffffffffffffffffff16815260200190815260200160002060009054906101000a900460ff16610668576040517f08c379a000000000000000000000000000000000000000000000000000000000815260040161065f90610f79565b60405180910390fd5b600260009054906101000a900473ffffffffffffffffffffffffffffffffffffffff1673ffffffffffffffffffffffffffffffffffffffff16630712249f83836040518363ffffffff1660e01b81526004016106c5929190610f99565b6020604051808303816000875af11580156106e4573d6000803e3d6000fd5b505050506040513d601f19601f820116820180604052508101906107089190610fde565b505050565b3373ffffffffffffffffffffffffffffffffffffffff16600260009054906101000a900473ffffffffffffffffffffffffffffffffffffffff1673ffffffffffffffffffffffffffffffffffffffff16636352211e846040518263ffffffff1660e01b815260040161077f9190610e17565b602060405180830381865afa15801561079c573d6000803e3d6000fd5b505050506040513d601f19601f820116820180604052508101906107c09190610e47565b73ffffffffffffffffffffffffffffffffffffffff1614610816576040517f08c379a000000000000000000000000000000000000000000000000000000000815260040161080d90611057565b60405180910390fd5b600260009054906101000a900473ffffffffffffffffffffffffffffffffffffffff1673ffffffffffffffffffffffffffffffffffffffff166323b872dd3383856040518463ffffffff1660e01b815260040161087593929190611077565b600060405180830381600087803b15801561088f57600080fd5b505af11580156108a3573d6000803e3d6000fd5b505050505050565b60016020528060005260406000206000915054906101000a900460ff1681565b6000600160008373ffffffffffffffffffffffffffffffffffffffff1673ffffffffffffffffffffffffffffffffffffffff16815260200190815260200160002060009054906101000a900460ff169050919050565b6000604051905090565b600080fd5b600080fd5b600073ffffffffffffffffffffffffffffffffffffffff82169050919050565b600061096082610935565b9050919050565b61097081610955565b811461097b57600080fd5b50565b60008135905061098d81610967565b92915050565b6000602082840312156109a9576109a861092b565b5b60006109b78482850161097e565b91505092915050565b6000819050919050565b6109d3816109c0565b81146109de57600080fd5b50565b6000813590506109f0816109ca565b92915050565b600060208284031215610a0c57610a0b61092b565b5b6000610a1a848285016109e1565b91505092915050565b610a2c81610955565b82525050565b600081519050919050565b600082825260208201905092915050565b60005b83811015610a6c578082015181840152602081019050610a51565b60008484015250505050565b6000601f19601f8301169050919050565b6000610a9482610a32565b610a9e8185610a3d565b9350610aae818560208601610a4e565b610ab781610a78565b840191505092915050565b6000606082019050610ad76000830186610a23565b8181036020830152610ae98185610a89565b9050610af86040830184610a23565b949350505050565b6000602082019050610b156000830184610a23565b92915050565b6000819050919050565b6000610b40610b3b610b3684610935565b610b1b565b610935565b9050919050565b6000610b5282610b25565b9050919050565b6000610b6482610b47565b9050919050565b610b7481610b59565b82525050565b6000602082019050610b8f6000830184610b6b565b92915050565b600080fd5b600080fd5b7f4e487b7100000000000000000000000000000000000000000000000000000000600052604160045260246000fd5b610bd782610a78565b810181811067ffffffffffffffff82111715610bf657610bf5610b9f565b5b80604052505050565b6000610c09610921565b9050610c158282610bce565b919050565b600067ffffffffffffffff821115610c3557610c34610b9f565b5b610c3e82610a78565b9050602081019050919050565b82818337600083830152505050565b6000610c6d610c6884610c1a565b610bff565b905082815260208101848484011115610c8957610c88610b9a565b5b610c94848285610c4b565b509392505050565b600082601f830112610cb157610cb0610b95565b5b8135610cc1848260208601610c5a565b91505092915050565b60008060408385031215610ce157610ce061092b565b5b6000610cef8582860161097e565b925050602083013567ffffffffffffffff811115610d1057610d0f610930565b5b610d1c85828601610c9c565b9150509250929050565b60008060408385031215610d3d57610d3c61092b565b5b6000610d4b858286016109e1565b9250506020610d5c8582860161097e565b9150509250929050565b60008115159050919050565b610d7b81610d66565b82525050565b6000602082019050610d966000830184610d72565b92915050565b7f4e6f742074686520636f6e7472616374206f776e657200000000000000000000600082015250565b6000610dd2601683610a3d565b9150610ddd82610d9c565b602082019050919050565b60006020820190508181036000830152610e0181610dc5565b9050919050565b610e11816109c0565b82525050565b6000602082019050610e2c6000830184610e08565b92915050565b600081519050610e4181610967565b92915050565b600060208284031215610e5d57610e5c61092b565b5b6000610e6b84828501610e32565b91505092915050565b6000610e87610e8284610c1a565b610bff565b905082815260208101848484011115610ea357610ea2610b9a565b5b610eae848285610a4e565b509392505050565b600082601f830112610ecb57610eca610b95565b5b8151610edb848260208601610e74565b91505092915050565b600060208284031215610efa57610ef961092b565b5b600082015167ffffffffffffffff811115610f1857610f17610930565b5b610f2484828501610eb6565b91505092915050565b7f4e6f7420616e20617574686f72697a6564206973737565720000000000000000600082015250565b6000610f63601883610a3d565b9150610f6e82610f2d565b602082019050919050565b60006020820190508181036000830152610f9281610f56565b9050919050565b6000604082019050610fae6000830185610a23565b8181036020830152610fc08184610a89565b90509392505050565b600081519050610fd8816109ca565b92915050565b600060208284031215610ff457610ff361092b565b5b600061100284828501610fc9565b91505092915050565b7f4e6f74206365727469666963617465206f776e65720000000000000000000000600082015250565b6000611041601583610a3d565b915061104c8261100b565b602082019050919050565b6000602082019050818103600083015261107081611034565b9050919050565b600060608201905061108c6000830186610a23565b6110996020830185610a23565b6110a66040830184610e08565b94935050505056fea264697066735822122062075b7532cf5bfd88ad039358559d6d31944cf45aed65d759b50cca3e93183764736f6c634300081c0033",
  "linkReferences": {},
  "deployedLinkReferences": {}
}